:100000000C9466000C9487000C9487000C94870075
:100010000C9487000C9487000C9487000C94870044
:100020000C9487000C9487000C9487000C94870034
:100030000C9487000C9487000C9487000C94870024
:100040000C9487000C9487000C9487000C94870014
:100050000C9487000C9487000C9487000C94870004
:100060000C9487000C948E090C9487000C948700E4
:100070000C9487000C9487000C9487000C948700E4
:100080000C9487000C9487000C9487000C948700D4
:100090000C9489000C9487000C9487000C948700C2
:1000A0000C9487000C9487000C9487000C948700B4
:1000B0000C9487000C9487000C9487000C948700A4
:1000C0000C9487000C9487000C94870011241FBEA9
:1000D000CFEFD1E2DEBFCDBF00E00CBF15E0A0E066
:1000E000B2E0E6EAFBE200E00BBF02C007900D922F
:1000F000AC31B107D9F718E0ACE1B5E001C01D9211
:10010000A733B107E1F70E9451010C94D1150C946B
:1001100000001F920F920FB60F920BB60F92112490
:100120002F933F934F935F936F937F938F939F93FF
:10013000AF93BF93EF93FF938091CE00482F50E091
:100140008FEB88B980911408909115088130910542
:1001500091F08130910520F0029709F08DC025C003
:100160004F3F510509F088C081E090E09093190855
:100170008093180810C08091180890911908019771
:1001800051F48091100890911108480F591F509315
:100190001108409310088091140890911508019659
:1001A000909315088093140867C080911808909167
:1001B0001908019709F058C02091100830911108D2
:1001C000942F8827820F931F909311088093100813
:1001D0008091100890911108937090931708809364
:1001E00016088091100890911108892F99278695FB
:1001F00086958770907090931B0880931A08809161
:10020000100890911108892F9927829586958770FB
:100210009093130880931208809116089091170804
:100220008050944030F08FEF93E0909317088093C4
:1002300016088091120890911308059730F084E019
:1002400090E0909313088093120880911A0890917F
:100250001B08892B19F40E94310206C081E090E04E
:1002600090930F0880930E081092110810921008B6
:10027000109215081092140881E088B9FF91EF914F
:10028000BF91AF919F918F917F916F915F914F91AE
:100290003F912F910F900BBE0F900FBE0F901F90AC
:1002A0001895109219081092180810920F081092C1
:1002B0000E0880910E0890910F0890931508809376
:1002C0001408809114089091150890931108809358
:1002D00010088FE787B95F985D985E9A80E090E09C
:1002E0000E948B0A0E94650483B7816083BF889552
:1002F00083B78E7F83BF80910E0890910F08892B62
:1003000099F380911A0890911B08609116087091DA
:10031000170840911208509113080E94D7031092B9
:100320000F0810920E08E0CFFC01CB018370907093
:1003300093838283681B790B76956795769567958D
:10034000718360830895AC01009749F011C080E18A
:1003500097E2F9013197F1F70197D9F702C020E947
:1003600031E080911C0590911D05892B81F30FC010
:100370008A30910510F043E050E020E030E060E981
:1003800071E080911C0590911D05019729F4109250
:100390001D0510921C05089580E197E2FB0131973D
:1003A000F1F70197D9F72F5F3F4F2417350748F32F
:1003B000089590931D0580931C05089561E070E0F9
:1003C00080E090E00E945B0A0895EF92FF920F9305
:1003D0001F93CF93DF938AE090E066E270E00E9483
:1003E00043077C0182E090E066E270E00E944307F0
:1003F0008C0184E090E066E270E00E944307EC012B
:1004000084E090E066E270E00E94430740E050E044
:10041000892B11F041E050E020E030E0CD2B11F0CD
:1004200021E030E0422B532B20E0EF2809F021E0BF
:1004300080E0012B09F081E0282B30E0242B352BC4
:10044000C901DF91CF911F910F91FF90EF90089517
:100450008EEF90E060E270E040E050E00E943007F4
:100460000895CF93DF938DEF88B98BEF88B9C09152
:100470001E05D0911F05C130D10589F487EF88B9D9
:100480008EEF90E060E270E040E050E00E943007C4
:100490008FEE88B9D0931D05C0931C0508C08FED61
:1004A00088B961E070E080E090E00E945B0A8FEB29
:1004B00088B9DF91CF910895AF92BF92CF92DF922A
:1004C000EF92FF920F931F93DF93CF93CDB7DEB7D9
:1004D00028970FB6F894DEBF0FBECDBF9A838983ED
:1004E0007C836B835E834D8338872F838EEF90E010
:1004F0000E94AE0583E890E00E94B10580E090E0A4
:1005000060E270E00E94B40581E090E062E070E09B
:100510000E94B405CC24DD2492E0E92EF12C5E018A
:100520000894A11CB11CF601E75FFB4F608171814B
:10053000C7010E94B405F501EC0DFD1D008111817C
:10054000C8010E94D605BC01C70101960E94B405EE
:10055000C8010E94DA05BC01C70102960E94B405D9
:1005600082E090E0C80ED91E83E090E0E80EF91E0C
:1005700098E0C916D104B9F680E190E00E94B9056F
:100580000E94130728960FB6F894DEBF0FBECDBFAA
:10059000CF91DF911F910F91FF90EF90DF90CF905F
:1005A000BF90AF900895CF92DF92EF92FF920F939A
:1005B0001F93CF93DF93EB016A01009719F0019726
:1005C000C1F51DC0E12C24E0F22EE60EF71E80E0FE
:1005D00090E00E94181023E333E343E35FE30E94BB
:1005E000300D20E030E040E050E00E94030D0E941A
:1005F000C40F8B019C01C701B801A70117C080E09F
:1006000090E00E94181023E333E343E35FE30E948A
:10061000300D20E030E040E854E40E94030D0E94D9
:10062000C40F8B019C01CE01B801AE0198010E945C
:100630005C02C6010E94A301CD2871F08EEF90E00C
:1006400060E270E040E050E00E94300761E070E05E
:1006500080E090E00E945B0ADF91CF911F910F91A3
:10066000FF90EF90DF90CF900895CF92DF92EF92BE
:10067000FF920F931F93CF93DF93EB016A010097D3
:10068000E9F00197A9F580E090E00E94181023E3BB
:1006900033E343E35FE30E94300D20E030E040E0CD
:1006A00050E00E94030D0E94C40F7B018C019E014B
:1006B00020503C4FCB01B901A70118C080E090E069
:1006C0000E94181023E333E343E35FE30E94300DFD
:1006D00020E030E040E854E40E94030D0E94C40F83
:1006E0009B01AC01CB01BE01A9019E010E945C02ED
:1006F000C6010E94A301CD2871F08EEF90E060E268
:1007000070E040E050E00E94300761E070E080E07F
:1007100090E00E945B0ADF91CF911F910F91FF90B3
:10072000EF90DF90CF9008950F931F93FC018B0102
:10073000AC0140505C4FCA01BF019F010E945C02A6
:10074000C8010E94A301012B71F08EEF90E060E2DE
:1007500070E040E050E00E94300761E070E080E02F
:1007600090E00E945B0A1F910F9108950F931F93D1
:10077000FC018B019C0120503C4FB901AF010E944C
:100780005C02C8010E94A301012B71F08EEF90E082
:1007900060E270E040E050E00E94300761E070E00D
:1007A00080E090E00E945B0A1F910F9108951092E3
:1007B0001D0510921C058330910539F18430910597
:1007C00038F48130910569F0029709F045C012C0F4
:1007D0008530910541F185309105F0F00697E1F5FE
:1007E0002DC090931F0580931E05CB01BA010E9476
:1007F000B6032EC081E090E090931F0580931E0504
:10080000CB01BA010E94940323C081E090E0909351
:100810001F0580931E050FC081E090E090931F0597
:1008200080931E0513C081E090E090931F05809394
:100830001E0580E090E00E9435030AC081E090E050
:1008400090931F0580931E0580E090E00E94D302E4
:1008500010921F0510921E0580E090E0089588E533
:1008600092E062E070E00E94B60381E090E068E50B
:1008700072E042E050E00E94350381E090E068E5DC
:1008800072E042E050E00E94D30288E592E062E02C
:1008900070E00E949403E3CF0F931F938C0166E0F6
:1008A00070E040E050E00E9430070E94A905C801B6
:1008B00068E070E040E050E00E9430070E94A90527
:1008C00081E090E01F910F91089580E090E062E256
:1008D00070E00E94AA07892B19F42FEF3FEF12C096
:1008E0008AE090E00E944C0482E090E00E944C0478
:1008F00084E090E00E944C0486E090E00E944C046A
:1009000021E030E0C901089581E090E00E94BC053B
:10091000019721F480E092E00E94F61282E090E0DC
:100920000E94BC05019721F485E192E00E94F61235
:1009300084E090E00E94BC05019721F488E292E0F7
:100940000E94F61288E090E00E94BC05019721F415
:1009500088E392E00E94F61280E190E00E94BC05DC
:10096000019721F48CE492E00E94F61280E290E07C
:100970000E94BC05019721F48CE592E00E94F612DA
:1009800080E490E00E94BC05019721F48CE692E09F
:100990000E94F612089584309105A9F085309105E2
:1009A00034F48230910561F00397E1F40FC0863092
:1009B000910591F08630910564F0079799F40FC086
:1009C00084E892E011C085EB92E00EC081EE92E0E7
:1009D0000BC084E193E008C081E493E005C08CE69D
:1009E00093E002C085E993E00E94F61208954F92C9
:1009F0005F926F927F928F929F92AF92BF92CF92AF
:100A0000DF92EF92FF920F931F93CF93DF937C01BE
:100A100000D00F9281EB93E0EDB7FEB79283818314
:100A200082E390E0948383830E94E41220E137E222
:100A30000F900F900F900F9040E951E0CA0101977D
:100A4000F1F721503040D1F700E010E0E1E0AE2EA8
:100A5000B12C7DED472E73E0572E6EEF662E63E0CE
:100A6000762E50E9852E51E0952E0115110539F0AD
:100A7000C2E3D0E04FEFC42E43E0D42E0BC0AB282E
:100A800009F454C0C2E3D4E03FEFC32E37E0D32EC5
:100A9000AA24BB2400D00F92EDB7FEB75282418248
:100AA000148303830E94E4120F900F900F900F9015
:100AB0002BC000D00F92EDB7FEB772826182D48353
:100AC000C3830E94E4120F900F900F900F90C70104
:100AD00066E270E00E9479070E94A90581309105C5
:100AE00081F4C70160E270E0AE010E9430070E940D
:100AF00084048FEF9FEFF4013197F1F70197D9F755
:100B000002C00E94CB04E296CC16DD0694F6C70123
:100B100060E270E040E050E00E943007C8010196BA
:100B200062E070E00E9486128C019FCF80E090E02E
:100B3000DF91CF911F910F91FF90EF90DF90CF90B9
:100B4000BF90AF909F908F907F906F905F904F90ED
:100B500008958091110490911204089580932205C4
:100B60000895809324050895FC01E05EFA4F6583A3
:100B7000089580932305089520E030E09091C40506
:100B8000982311F021E030E0C90108958091C30558
:100B900090E00895FC01E054FA4F858190E00895BB
:100BA000362F20E0280F391FC9010895282F30E083
:100BB000C90108958070892F90E008950F931F93C5
:100BC000CF93DF938091080690910906892B09F451
:100BD000BBC0809122058E3F09F4ACC08091110406
:100BE00090911204892B29F41092070686E08093D5
:100BF00006068091070690E06091060670E0681B8B
:100C0000790B80549A4F0E94610990910706980FC2
:100C10009093070680910606981720F40E946B08AF
:100C2000019771F070910706472F50E0DA01119794
:100C30008A010250104060E0ED01C054DA4F18C044
:100C400080910706882309F072C086E090E074C0A6
:100C5000F901E054FA4F80818F3F19F481818F3F71
:100C600061F02017310719F488818F3F31F06F5FF1
:100C7000262F30E02A173B075CF36623A1F090E0B3
:100C8000421B530B08C0E054FA4FDF01A20FB31F01
:100C90008C9180839F5FE92FF0E0E417F5079CF3C8
:100CA000761B709307062091070680910606281789
:100CB00030F1909122058091C2059817C1F560919D
:100CC000C3056C5F60930606261790F4822F90E0B0
:100CD00070E0681B790B80549A4F0E9461099091D3
:100CE0000706980F9093070680910606981738F02C
:100CF0008091C305A82FB0E020E090E00CC085E013
:100D000090E090931204809311041EC0E054FA4FB7
:100D10008281980F2F5FE22FF0E0AE17BF07B4F784
:100D2000A054BA4F909513968C91891719F087E0CB
:100D300090E002C081E090E090931204809311044F
:100D40001092090610920806DF91CF911F910F9122
:100D500008951F938091080690910906019709F460
:100D600060C081E090E0909309068093080680912E
:100D70002305893940F490912405892F81508630CC
:100D800028F0933819F084E090E031C08FEF809321
:100D900020058093210580912305A82FB0E020E055
:100DA00090E005C0E05EFA4F8281980F2F5FE22F3E
:100DB000F0E0AE17BF07B4F7A05EBA4F9095139658
:100DC0009C9380911104909112040697029710F45D
:100DD0000E943108109123051C5F80E295E0612F8D
:100DE00070E00E943608181759F082E090E0909366
:100DF000120480931104109209061092080611C083
:100E000080912405823029F48091260590E0069691
:100E100002C086E090E00E945A08109212041092DC
:100E200011041F910895CF93DF930E94A90680912A
:100E3000110490911204892B81F4C0E0D0E00E944B
:100E4000DE058091110490911204059721F42196FA
:100E5000C436D105A1F70E943108DF91CF910895E2
:100E60008093220583E08093240560932505CA01C1
:100E70004093260580709093270585E08093230595
:100E80000E9413070895282F809108069091090663
:100E9000892BB9F42093220582E080932405609386
:100EA00025058093260584E0809323050E9413077F
:100EB0003091C60520E08091C505280F311DC9017C
:100EC0000895FFCF282F8091080690910906892B5D
:100ED00079F42093220583E080932405609325050F
:100EE0004093260584E0809323050E94130708950C
:100EF000FFCF282F8091080690910906892B99F43D
:100F00002093220582E0809324056093250581E0EB
:100F10008093260584E0809323050E941307809127
:100F2000C50590E00895FFCF282F80910806909185
:100F30000906892B59F42093220581E0809324052A
:100F400082E0809323050E9413070895FFCF0E943B
:100F5000300808950F931F938C016F5F7F4F882790
:100F600077FD8095982F0E94660F9B01AC0160E091
:100F700074E284EF99E40E942A0EAB01BC01C8011F
:100F80000E94D707892B19F420E030E00CC081E0E3
:100F900090E090931204809311041092090610922D
:100FA000080621E030E0C9011F910F910895EF92EA
:100FB000FF920F931F937A018B0182E48093C0000C
:100FC00088E98093C10086E08093C20060E074E20B
:100FD00084EF99E4A80197010E942A0E0E945A0BFF
:100FE000615070407093C5006093C40060E074E28B
:100FF00084E799E4A80197010E942A0E20E030E0DE
:1010000040E451E40E94300D60931E0870931F0865
:10101000809320089093210820911E0830911F088A
:10102000409120085091210860E070E08AE793E445
:101030000E942A0E0E945A0B70931D0860931C0890
:101040007298739A8FEF8093C60010920A071092DD
:101050000B0781E090E01F910F91FF90EF900895B2
:10106000089580910B0780930A070895AC01F894C6
:101070007398729A20E030E011C08091C00085FF23
:10108000FCCF8091C00080648093C000FA01E20F21
:10109000F31F80818093C6002F5F3F4F26173707CD
:1010A00064F38091C00086FFFCCF7298739A7894A5
:1010B000C9010895109225081092240820911C0857
:1010C00030911D08265F3F4F280F391F30932308AA
:1010D000209322080895AF92BF92CF92DF92EF92B1
:1010E000FF920F931F9380912408909125080196F9
:1010F0009093250880932408209124083091250896
:1011000080912208909123088217930718F421E018
:1011100030E074C0A0901E08B0901F08C090200856
:10112000D0902108C601B5012BEA3AEA4AEA50E418
:101130000E94300D7B018C0120E030E040E85FE34D
:101140000E94360F882314F461E054C0C801B7012F
:1011500020E030E04FE753E40E94D60E18160CF062
:1011600045C0C601B50120E030E04AE754E40E94E2
:101170002A0E5B016C0120E030E04AE755E40E9452
:10118000300D7B018C0120E030E040E85FE30E94FD
:10119000360F88231CF461E070E024C0C801B70159
:1011A00020E03FEF4FE757E40E94D60E1816B4F444
:1011B000C601B50120E030E040E251E40E94300D6C
:1011C0000E945A0B80E991E005C0FC013197F1F7CC
:1011D0006150704061157105C1F70EC0C801B701BB
:1011E0000E945A0BCB010197F1F706C0C801B70165
:1011F0000E945A0B6A95F1F720E030E0C9011F9177
:101200000F91FF90EF90DF90CF90BF90AF90089537
:1012100090910A0780910B07981719F420E030E0AD
:1012200017C090910A0780910B07981738F48091A6
:101230000B0790910A07282F30E008C080910B0718
:1012400090910A07282F30E020503F4F291B310989
:10125000C90108951F93182F0E9408098F3F910517
:1012600091F0E0910B07F0E0E65FF94F1083809179
:101270000B078F3F19F410920B0705C080910B07E5
:101280008F5F80930B071F91089590910A078091BB
:101290000B07981711F4EFEF12C0E0910A07F0E086
:1012A000E65FF94FE08180910A078F3F19F41092B1
:1012B0000A0705C080910A078F5F80930A078E2F67
:1012C0000895EF92FF920F931F93CF93DF937C01CA
:1012D000EB0190910A0780910B07981719F400E031
:1012E00010E014C00E9408098C01C817D9070CF43B
:1012F0008E01C0E0D0E007C00E944509F701EC0F65
:10130000FD1F80832196C017D107B4F3C801DF9178
:10131000CF911F910F91FF90EF9008951F920F9220
:101320000FB60F920BB60F9211242F933F934F934A
:101330005F936F937F938F939F93AF93BF93EF933D
:10134000FF938091C6000E942A09FF91EF91BF91FF
:10135000AF919F918F917F916F915F914F913F914D
:101360002F910F900BBE0F900FBE0F901F901895EE
:1013700010922708609128087091290880912A0806
:1013800090912B08089580912708813019F421E06D
:1013900030E08FC080912608853098F490E065E0B9
:1013A00070E0681B790B845D974F0E94360B9C019F
:1013B0008FEF2F3F380729F080912608820F809306
:1013C000260890912608992389F120E030E0692FC2
:1013D00070E008C0F901E45DF74F80818F3F29F08C
:1013E0002F5F3F4F26173707ACF321153105F1F07A
:1013F0002617370749F4A90141505040FA01E45D2E
:10140000F74F80818F3F09F0A901DA01A45DB74F42
:10141000ECE2F8E09A0104C08D9181932F5F3F4F79
:1014200026173707CCF3941B909326088091260843
:101430008530D9F580912C088F3F99F520912E08A1
:1014400030E040E050E0542F432F322F222780918C
:101450002F0890E0A0E0B0E0DC0199278827280F52
:10146000391F4A1F5B1F80912D08280F311D411D18
:10147000511D8091300890E0A0E0B0E0B82FAA277D
:1014800099278827280F391F4A1F5B1F2093280898
:101490003093290840932A0850932B0881E08093C9
:1014A000270810922C081092260880912708282FD0
:1014B00030E0C9010895DF93CF9300D00F920F92CF
:1014C000CDB7DEB72FEF29836A83272F382F492F17
:1014D00055272B839C01442755272C83692F772779
:1014E000882799276D83CE01019665E070E00E9400
:1014F000CA0A20E030E0059711F421E030E0C9018C
:101500000F900F900F900F900F90CF91DF91089553
:101510000E94C90A089540E050E061E677E40E9425
:10152000A60A892B19F420E030E00EC0109227089B
:10153000109228081092290810922A0810922B085D
:101540001092260821E030E0C90108959A01AB010C
:1015500082E48093C80088E98093C90086E0809384
:10156000CA0060E074E284EF99E40E942A0E0E94AF
:101570005A0B615070407093C5006093C4008FEFA8
:101580008093CE0010920C0810920D0881E090E03C
:1015900008950895AC0120E030E00CC08091C800AF
:1015A00085FFFCCFFA01E20FF31F80818093CE000C
:1015B0002F5F3F4F261737078CF3C901089590918D
:1015C0000C0880910D08981719F420E030E017C03E
:1015D00090910C0880910D08981738F480910D08AF
:1015E00090910C08282F30E008C080910D08909150
:1015F0000C08282F30E020503F4F291B3109C9012A
:1016000008951F93182F0E94DF0A8F3F910591F0D4
:10161000E0910D08F0E0E45FF84F108380910D0831
:101620008F3F19F410920D0805C080910D088F5F4F
:1016300080930D081F9108950E94DF0A892B11F4F1
:10164000EFEF12C0E0910C08F0E0E45FF84FE081AA
:1016500080910C088F3F19F410920C0805C08091FE
:101660000C088F5F80930C088E2F0895EF92FF92E5
:101670000F931F93CF93DF937C01EB010E94DF0A4E
:101680008C01C817D9070CF48E01C0E0D0E007C068
:101690000E941C0BF701EC0FFD1F80832196C017E1
:1016A000D107B4F3C801DF91CF911F910F91FF9043
:1016B000EF900895EF92FF920F931F937B018C019F
:1016C00020E030E040E05FE40E94060F88238CF0C9
:1016D000C801B70120E030E040E05FE40E94D20C96
:1016E0000E94C40F9B01AC01205030404040504844
:1016F00006C0C801B7010E94C40F9B01AC01B9012B
:10170000CA011F910F91FF90EF900895A0E0B0E003
:10171000ECE8FBE00C94AD12DC012B01FA019C918A
:10172000923008F439C1EB018881823008F433C16A
:10173000943069F4843009F02FC111969C9111976F
:101740008981981709F428C1A3E1B4E025C1843048
:1017500009F421C18230A9F4923009F01DC19A0127
:10176000AD0188E0EA010990AE01E90109929E010C
:101770008150C1F7E201898111969C91892381836F
:1017800008C1923009F407C112962D903C9013972E
:10179000EB018A819B811496AD90BD90CD90DC9039
:1017A0001797EC80FD800E811F819101281B390B5A
:1017B000B90137FF04C066277727621B730B6032BD
:1017C00071050CF061C0121613066CF53701480163
:1017D000062E04C096948794779467940A94D2F75F
:1017E00021E030E040E050E004C0220F331F441FEE
:1017F000551F6A95D2F721503040404050402E216D
:101800003F2140235123211531054105510521F088
:1018100021E030E040E050E079018A01E628F72835
:10182000082919293CC0232BD1F1260E371E35017A
:101830004601062E04C096948794779467940A9480
:10184000D2F721E030E040E050E004C0220F331F27
:10185000441F551F6A95D2F72150304040405040F8
:101860002A213B214C215D212115310541055105DE
:1018700021F021E030E040E050E059016A01A62863
:10188000B728C828D9280BC0821593052CF01C0155
:10189000AA24BB24650103C0EE24FF24870111960E
:1018A0009C91D20111968C91981709F445C0992307
:1018B00039F0A80197012A193B094C095D0906C0B6
:1018C000A60195012E193F09400B510B57FD08C089
:1018D00011823382228224833583468357831DC03D
:1018E00081E081833382228288279927DC01821B51
:1018F000930BA40BB50B84839583A683B7830DC08C
:10190000220F331F441F551F24833583468357837B
:1019100082819381019793838283248135814681DB
:101920005781DA01C9010197A109B1098F5F9F4F62
:10193000AF4FBF4328F30BC0918333822282EA0C5E
:10194000FB1C0C1D1D1DE482F5820683178383E0BA
:101950008083248135814681578157FF1AC0C90190
:10196000AA2797FDA095BA2F81709070A070B070D3
:101970005695479537952795822B932BA42BB52BFE
:1019800084839583A683B783828193810196938311
:101990008283DF0101C0D201CD01CDB7DEB7E2E124
:1019A0000C94C912A0E2B0E0E8EDFCE00C94B9128E
:1019B00069837A838B839C832D833E834F835887EF
:1019C000E9E0EE2EF12CEC0EFD1ECE010196B701E2
:1019D0000E94B5118E010F5E1F4FCE010596B80112
:1019E0000E94B5118A8991E089278A8BC701B801C5
:1019F000AE01475E5F4F0E94860B0E94E010A096EA
:101A0000E6E00C94D512A0E2B0E0E9E0FDE00C9431
:101A1000B91269837A838B839C832D833E834F83A2
:101A20005887F9E0EF2EF12CEC0EFD1ECE01019649
:101A3000B7010E94B5118E010F5E1F4FCE010596B2
:101A4000B8010E94B511C701B801AE01475E5F4FF2
:101A50000E94860B0E94E010A096E6E00C94D5123E
:101A6000A0E2B0E0E6E3FDE00C94AD1269837A8376
:101A70008B839C832D833E834F835887CE010196B1
:101A8000BE01675F7F4F0E94B511CE010596BE0172
:101A90006F5E7F4F0E94B5119985923088F08989D9
:101AA0008230C8F0943019F4823051F404C084308C
:101AB00029F4923081F483E194E0C6C0923049F475
:101AC00020E09A858A89981321E02A87CE01099619
:101AD000BBC0823049F420E09A858A89981321E0BE
:101AE0002A8BCE014196B0C02D843E844F84588805
:101AF0006D887E888F88988CEE24FF248701AA2425
:101B0000BB24650140E050E060E070E0E0E0F0E020
:101B1000C10181709070892BE9F0E60CF71C081D5B
:101B2000191D9A01AB012A0D3B1D4C1D5D1D80E066
:101B300090E0A0E0B0E0E614F7040805190520F4F1
:101B400081E090E0A0E0B0E0BA01A901480F591F80
:101B50006A1F7B1FAA0CBB1CCC1CDD1C97FE08C097
:101B600081E090E0A0E0B0E0A82AB92ACA2ADB2AE6
:101B70003196E032F10549F0660C771C881C991CFF
:101B80005694479437942794C3CFFA85EA892B89D2
:101B90003C898B859C85280F391F2E5F3F4F17C0CE
:101BA000CA0181709070892B61F016950795F794A2
:101BB000E79480E090E0A0E0B0E8E82AF92A0A2B58
:101BC0001B2B76956795579547952F5F3F4F77FD70
:101BD000E7CF0CC0440F551F661F771F17FD4160EC
:101BE000EE0CFF1C001F111F21503040403090E0D0
:101BF000590790E0690790E4790760F32B8F3C8FD9
:101C0000DB01CA018F779070A070B07080349105AD
:101C1000A105B10561F447FD0AC0E114F104010515
:101C2000110529F0405C5F4F6F4F7F4F40781A8E4F
:101C3000FE1711F081E08A8F4D8F5E8F6F8F78A332
:101C400083E0898FCE0149960E94E010A096E2E1E0
:101C50000C94C912A8E1B0E0E0E3FEE00C94B512E8
:101C600069837A838B839C832D833E834F8358873C
:101C7000B9E0EB2EF12CEC0EFD1ECE010196B70162
:101C80000E94B5118E010F5E1F4FCE010596B8015F
:101C90000E94B5112985223008F47EC0398932307E
:101CA00010F4B8017CC08A859A8989278A872430F4
:101CB00011F0223031F4231709F06EC063E174E0B3
:101CC0006EC0343039F41D861E861F86188A1C8625
:101CD0001B8604C0323021F484E08987B7015FC0DD
:101CE0002B853C858B899C89281B390B3C872B874E
:101CF000ED84FE840F851889AD88BE88CF88D88C86
:101D0000EA14FB040C051D0540F4EE0CFF1C001F3B
:101D1000111F215030403C872B8720E030E040E00D
:101D200050E080E090E0A0E0B0E460E070E0EA1411
:101D3000FB040C051D0540F0282B392B4A2B5B2B8F
:101D4000EA18FB080C091D09B695A7959795879584
:101D5000EE0CFF1C001F111F6F5F7F4F6F3171056D
:101D600031F7DA01C9018F779070A070B0708034BC
:101D70009105A105B10561F427FD0AC0E114F10444
:101D80000105110529F0205C3F4F4F4F5F4F207830
:101D90002D873E874F87588BBE01675F7F4FCB01F2
:101DA0000E94E0106896EAE00C94D112A8E1B0E03D
:101DB000ECEDFEE00C94B91269837A838B839C83EB
:101DC0002D833E834F83588789E0E82EF12CEC0E5B
:101DD000FD1ECE010196B7010E94B5118E010F5E66
:101DE0001F4FCE010596B8010E94B511898582303A
:101DF00040F08989823028F0C701B8010E942D1275
:101E000001C08FEF6896E6E00C94D512A8E1B0E02F
:101E1000ECE0FFE00C94B91269837A838B839C8396
:101E20002D833E834F83588789E0E82EF12CEC0EFA
:101E3000FD1ECE010196B7010E94B5118E010F5E05
:101E40001F4FCE010596B8010E94B51189858230D9
:101E500040F08989823028F0C701B8010E942D1214
:101E600001C08FEF6896E6E00C94D512A8E1B0E0CF
:101E7000ECE3FFE00C94B91269837A838B839C8333
:101E80002D833E834F83588789E0E82EF12CEC0E9A
:101E9000FD1ECE010196B7010E94B5118E010F5EA5
:101EA0001F4FCE010596B8010E94B5118985823079
:101EB00040F08989823028F0C701B8010E942D12B4
:101EC00001C081E06896E6E00C94D512A8E0B0E08D
:101ED000ECE6FFE00C94B6129B01AC0183E0898331
:101EE000DA01C9018827B7FD83959927AA27BB275F
:101EF000B82E211531054105510519F482E0898379
:101F00003AC08823A9F0203080E0380780E04807F5
:101F100080E8580729F460E070E080E09FEC30C072
:101F2000EE24FF248701E21AF30A040B150B02C00A
:101F300079018A018EE1C82ED12CDC82CB82ED8220
:101F4000FE820F831887C801B7010E949110019784
:101F50001816190684F4082E04C0EE0CFF1C001F8E
:101F6000111F0A94D2F7ED82FE820F831887C81AD8
:101F7000D90ADC82CB82BA82CE0101960E94E0109F
:101F80002896E9E00C94D212ACE0B0E0EAECFFE075
:101F90000C94BD1269837A838B839C83CE01019656
:101FA000BE016B5F7F4F0E94B5118D81823061F160
:101FB000823050F1843021F48E81882351F12EC07B
:101FC0002F81388537FD20C06E812F3131051CF0FF
:101FD0006623F9F023C08EE190E0821B930B2985E4
:101FE0003A854B855C8504C056954795379527956E
:101FF0008A95D2F76623B1F050954095309521959A
:102000003F4F4F4F5F4F0EC020E030E040E050E0C8
:1020100009C02FEF3FEF4FEF5FE704C020E030E053
:1020200040E050E8B901CA012C96E2E00C94D912C4
:10203000A8E0B0E0EEE1F0E10C94B5127B018C0178
:10204000611571058105910519F482E0898360C0ED
:1020500083E089838EE1C82ED12CDC82CB82ED8295
:10206000FE820F831887C801B7010E949110FC01FE
:102070003197F7FF3BC0222733272E1B3F0B570119
:102080006801022E04C0D694C794B794A7940A940A
:10209000D2F740E050E060E070E081E090E0A0E046
:1020A000B0E004C0880F991FAA1FBB1F2A95D2F762
:1020B0000197A109B1098E219F21A023B123009787
:1020C000A105B10521F041E050E060E070E04A294F
:1020D0005B296C297D294D835E836F8378878EE130
:1020E00090E08E1B9F0B9C838B8312C0309781F0F6
:1020F0000E2E04C0EE0CFF1C001F111F0A94D2F715
:10210000ED82FE820F831887CE1ADF0ADC82CB8233
:102110001A82CE0101960E94E0102896EAE00C9403
:10212000D112EF92FF920F931F937B018C0180E0FD
:10213000E81680E0F80681E0080780E0180788F4D8
:102140008FEFE816F1040105110531F028F088E061
:1021500090E0A0E0B0E017C080E090E0A0E0B0E048
:1021600012C080E0E81680E0F80680E0080781E011
:10217000180728F088E190E0A0E0B0E004C080E11A
:1021800090E0A0E0B0E020E230E040E050E0281B2A
:10219000390B4A0B5B0B04C016950795F794E7942F
:1021A0008A95D2F7F701E55EFB4F8081281B310944
:1021B00041095109C9011F910F91FF90EF900895B6
:1021C000DF92EF92FF920F931F93FC01E480F58062
:1021D00006811781D1808081823048F480E090E0D0
:1021E000A0E1B0E0E82AF92A0A2B1B2BA5C0843015
:1021F00009F49FC0823021F4EE24FF24870105C03A
:10220000E114F1040105110519F4E0E0F0E096C0D5
:10221000628173819FEF623879070CF05BC022E81E
:102220003FEF261B370B2A3131052CF020E030E040
:1022300040E050E02AC0B801A701022E04C0769504
:102240006795579547950A94D2F781E090E0A0E012
:10225000B0E004C0880F991FAA1FBB1F2A95D2F7B0
:102260000197A109B1098E219F21A023B1230097D5
:10227000A105B10521F081E090E0A0E0B0E09A0175
:10228000AB01282B392B4A2B5B2BDA01C9018F7745
:102290009070A070B07080349105A105B10539F43B
:1022A00027FF09C0205C3F4F4F4F5F4F04C0215CA8
:1022B0003F4F4F4F5F4FE0E0F0E02030A0E03A07A3
:1022C000A0E04A07A0E45A0710F0E1E0F0E079014D
:1022D0008A0127C06038710564F5FB01E158FF4FA2
:1022E000D801C7018F779070A070B07080349105CD
:1022F000A105B10539F4E7FE0DC080E490E0A0E04F
:10230000B0E004C08FE390E0A0E0B0E0E80EF91E7A
:102310000A1F1B1F17FF05C016950795F794E79432
:10232000319687E016950795F794E7948A95D1F74B
:1023300005C0EE24FF248701EFEFF0E06E2F6795D4
:1023400066276795902F9F77D794DD24D7948E2F9B
:102350008695492F462B582F5D29B701CA011F9139
:102360000F91FF90EF90DF900895FC01DB01408119
:1023700051812281622F6F7770E0221F2227221F56
:102380009381892F880F822B282F30E0991F99275E
:10239000991F11969C93119721153105A9F54115A7
:1023A00051056105710511F482E037C082E89FEFA5
:1023B00013969C938E9312979A01AB0167E0220FBC
:1023C000331F441F551F6A95D1F783E08C930DC0CE
:1023D000220F331F441F551F12968D919C91139706
:1023E000019713969C938E931297203080E03807C4
:1023F00080E0480780E4580758F314962D933D93E6
:102400004D935C93179708952F3F310579F441154B
:1024100051056105710519F484E08C93089564FFFA
:1024200003C081E08C9312C01C9210C02F57304023
:1024300013963C932E93129783E08C9387E0440F7E
:10244000551F661F771F8A95D1F7706414964D93B8
:102450005D936D937C93179708951F93DC01FB01A7
:102460009C91923008F447C08081823008F443C0C8
:10247000943051F411961C91843099F58181682F24
:1024800070E0611B71093FC0843021F0923031F45B
:102490008230B9F18181882389F12DC011961C9178
:1024A00011978230F1F081811817D9F412962D918D
:1024B0003C911397828193818217930794F0281798
:1024C0003907BCF014968D919D910D90BC91A02D73
:1024D0002481358146815781281739074A075B07D0
:1024E00018F4112341F00AC082179307A407B50717
:1024F00040F4112319F061E070E005C06FEF7FEF49
:1025000002C060E070E0CB011F91089597FB092E97
:1025100007260AD077FD04D00CD006D000201AF48C
:10252000709561957F4F0895F6F7909581959F4F2F
:102530000895AA1BBB1B51E107C0AA1FBB1FA6170A
:10254000B70710F0A61BB70B881F991F5A95A9F75C
:1025500080959095BC01CD0108952F923F924F92A6
:102560005F926F927F928F929F92AF92BF92CF9223
:10257000DF92EF92FF920F931F93CF93DF93CDB72C
:10258000DEB7CA1BDB0B0FB6F894DEBF0FBECDBFA4
:1025900019942A88398848885F846E847D848C8465
:1025A0009B84AA84B984C884DF80EE80FD800C817E
:1025B0001B81AA81B981CE0FD11D0FB6F894DEBF61
:1025C0000FBECDBFED010895DF93CF93CDB7DEB73A
:1025D000FE01369661917191809133089091340893
:1025E000AF010E942B13CF91DF9108950F931F939A
:1025F000CF93DF938C01E0913308F091340883810D
:1026000081FF21C0C0E0D0E00DC0E0913308F0911F
:10261000340820853185BF01F9011995892B11F006
:10262000CFEFDFEFF80181918F01882371F7E091FF
:102630003308F0913408208531858AE0BF01F90123
:102640001995892B11F0CFEFDFEFCE01DF91CF91FC
:102650001F910F9108952F923F924F925F926F9228
:102660007F928F929F92AF92BF92CF92DF92EF9222
:10267000FF920F931F93DF93CF93CDB7DEB72B97C6
:102680000FB6F894DEBF0FBECDBF3C012B015A013F
:10269000FC0117821682838181FD03C06FEF7FEFFB
:1026A000C6C19AE0892E1E010894211C311CF30139
:1026B0002381F20123FD859123FF81912F0188233E
:1026C00009F4B2C1853239F423FD859123FF81914C
:1026D0002F01853229F490E0B3010E944715E7CF1E
:1026E000982FFF24EE249924FFE1FF15D0F09B32B0
:1026F00069F09C3228F4903259F0933291F40EC074
:102700009D3249F0903369F441E024C052E0F52A4B
:1027100084E0F82A28C098E0F92A25C0E0E1FE2AE2
:1027200022C0F7FC29C0892F80538A3070F4F6FE4E
:1027300005C0989C902C1124980E15C0E89CE02CA4
:102740001124E80EF0E2FF2A0EC09E3229F4F6FCB6
:102750006BC140E4F42A07C09C3619F450E8F52A0E
:1027600002C0983649F4F20123FD959123FF91911F
:102770002F01992309F0B8CF892F8554833018F0A1
:102780008052833038F444E050E0A40EB51E5FE37D
:1027900059830FC0933631F0933779F0933509F0B0
:1027A00056C020C0F5018081898342E050E0A40E2C
:1027B000B51E610101E010E012C0F501C080D180BA
:1027C000F6FC03C06FEF7FEF02C0692D70E042E0BE
:1027D00050E0A40EB51EC6010E943C158C015FE7B7
:1027E000F52214C0F501C080D180F6FC03C06FEF64
:1027F0007FEF02C0692D70E042E050E0A40EB51EEC
:10280000C6010E9431158C0150E8F52AF3FE07C07D
:102810001AC080E290E0B3010E944715EA948E2D21
:1028200090E008171907A8F30EC0F601F7FC859190
:10283000F7FE81916F0190E0B3010E944715E1100E
:10284000EA94015010400115110579F7EAC0943659
:1028500011F0993669F5F7FE08C0F5012081318144
:102860004281538184E090E00AC0F501808191812A
:102870009C01442737FD4095542F82E090E0A80E3C
:10288000B91E9FE6F92257FF09C050954095309533
:1028900021953F4F4F4F5F4FE0E8FE2ACA01B90133
:1028A000A1012AE030E00E947315D82ED21840C052
:1028B000953729F41F2D1F7E2AE030E01DC01F2D03
:1028C000197F9F3661F0903720F4983509F0ACC03D
:1028D0000FC0903739F0983709F0A6C004C028E03F
:1028E00030E00AC0106114FD146020E130E004C043
:1028F00014FD166020E132E017FF08C0F501608189
:1029000071818281938144E050E008C0F5018081AB
:102910009181BC0180E090E042E050E0A40EB51E41
:10292000A1010E947315D82ED2188FE7F82EF1223C
:10293000F6FE0BC05EEFF522D91438F4F4FE07C0A2
:10294000F2FC05C08FEEF82202C01D2D01C0192D2A
:10295000F4FE0DC0FE01ED0DF11D8081803319F4F0
:1029600099EEF92208C01F5FF2FE05C003C08F2D4B
:10297000867809F01F5F0F2DF3FC14C0F0FE0FC026
:102980001E1510F09D2C0BC09D2C9E0C911A1E2D17
:1029900006C080E290E0B3010E9447151F5F1E153C
:1029A000C0F304C01E1510F4E11A01C0EE2404FFA8
:1029B0000FC080E390E0B3010E94471502FF1DC0E5
:1029C00001FD03C088E790E00EC088E590E00BC0F1
:1029D000802F867891F001FF02C08BE201C080E277
:1029E000F7FC8DE290E0B3010E94471506C080E33A
:1029F00090E0B3010E9447159A94D914C0F3DA9479
:102A0000F101ED0DF11D808190E0B3010E944715A9
:102A1000DD20A9F706C080E290E0B3010E944715CF
:102A2000EA94EE20C1F743CEF30166817781CB01B2
:102A30002B960FB6F894DEBF0FBECDBFCF91DF91BE
:102A40001F910F91FF90EF90DF90CF90BF90AF90CC
:102A50009F908F907F906F905F904F903F902F90BE
:102A60000895FC010590615070400110D8F78095E1
:102A700090958E0F9F1F0895FC016150704001904A
:102A80000110D8F7809590958E0F9F1F08950F9392
:102A90001F93CF93DF938C01EB018B8181FF1BC0D0
:102AA00082FF0DC02E813F818C819D8128173907BF
:102AB00064F4E881F9810193F983E88306C0E8852D
:102AC000F985802F1995892B31F48E819F8101968C
:102AD0009F838E8302C00FEF1FEFC801DF91CF915C
:102AE0001F910F910895FA01AA27283051F1203142
:102AF00081F1E8946F936E7F6E5F7F4F8F4F9F4F92
:102B0000AF4FB1E03ED0B4E03CD0670F781F891FD3
:102B10009A1FA11D680F791F8A1F911DA11D6A0FA1
:102B2000711D811D911DA11D20D009F468943F9154
:102B30002AE0269F11243019305D3193DEF6CF0153
:102B40000895462F4770405D4193B3E00FD0C9F719
:102B5000F6CF462F4F70405D4A3318F0495D31FD86
:102B60004052419302D0A9F7EACFB4E0A6959795D9
:102B7000879577956795BA95C9F7009761057105AF
:102B800008959B01AC010A2E0694579547953795F9
:102B90002795BA95C9F7620F731F841F951FA01D53
:062BA0000895F894FFCF38
:102BA600496E70757420766F6C7461676520657206
:102BB600726F722100416E676C65206C696D697475
:102BC600206572726F7221004F7665726865617456
:102BD600206572726F7221004F7574206F662072C5
:102BE600616E6765206572726F7221004368656366
:102BF6006B73756D206572726F7221004F76657208
:102C06006C6F6164206572726F722100496E737415
:102C160072756374696F6E20636F64652065727286
:102C26006F722100434F4D4D5F54584641494C3A0F
:102C3600204661696C6564207472616E736D697497
:102C460020696E737472756374696F6E2070616348
:102C56006B65742100434F4D4D5F54584552524F9A
:102C6600523A20496E636F727265637420696E739F
:102C76007472756374696F6E207061636B6574211D
:102C860000434F4D4D5F52584641494C3A204661EC
:102C9600696C65642067657420737461747573204C
:102CA6007061636B65742066726F6D20646576690A
:102CB60063652100434F4D4D5F5258574149544972
:102CC6004E473A204E6F7720726563696576696E66
:102CD6006720737461747573207061636B6574210A
:102CE60000434F4D4D5F525854494D454F55543A48
:102CF600205468657265206973206E6F2073746155
:102D0600747573207061636B65742100434F4D4D7C
:102D16005F5258434F52525550543A20496E636F92
:102D26007272656374207374617475732070616365
:102D36006B657421005468697320697320756E6B26
:102D46006E6F776E206572726F7220636F64652195
:102D56000054657374696E672064786C206D6F74B7
:102D66006F72206D6F76656D656E742E2053746577
:102D7600702069732025642E2E200D0A005374617D
:102D86007274696E6720746573743A20646972653B
:102D96006374696F6E2069732025640D0A00537091
:102DA6006565643A2025640A000A000200040006EC
:102DB6000001000000000000000000000102020304
:102DC60003030304040404040404040505050505BB
:102DD6000505050505050505050505060606060698
:102DE600060606060606060606060606060606067D
:102DF6000606060606060606060606070707070768
:102E0600070707070707070707070707070707074C
:102E1600070707070707070707070707070707073C
:102E2600070707070707070707070707070707072C
:102E36000707070707070707070707080808080817
:102E460008080808080808080808080808080808FC
:102E560008080808080808080808080808080808EC
:102E660008080808080808080808080808080808DC
:102E760008080808080808080808080808080808CC
:102E860008080808080808080808080808080808BC
:102E960008080808080808080808080808080808AC
:102EA600080808080808080808080808080808089C
:0C2EB600080808080808080808080800B8
:00000001FF
